{
  "_format": "hh-sol-artifact-1",
  "contractName": "FundMe",
  "sourceName": "contracts/FundMe.sol",
  "abi": [
    {
      "inputs": [
        {
          "internalType": "address",
          "name": "priceFeedAddress",
          "type": "address"
        }
      ],
      "stateMutability": "nonpayable",
      "type": "constructor"
    },
    {
      "inputs": [
        {
          "internalType": "address",
          "name": "",
          "type": "address"
        }
      ],
      "name": "addressToAmountFunded",
      "outputs": [
        {
          "internalType": "uint256",
          "name": "",
          "type": "uint256"
        }
      ],
      "stateMutability": "view",
      "type": "function"
    },
    {
      "inputs": [],
      "name": "fund",
      "outputs": [],
      "stateMutability": "payable",
      "type": "function"
    },
    {
      "inputs": [
        {
          "internalType": "uint256",
          "name": "",
          "type": "uint256"
        }
      ],
      "name": "funders",
      "outputs": [
        {
          "internalType": "address",
          "name": "",
          "type": "address"
        }
      ],
      "stateMutability": "view",
      "type": "function"
    },
    {
      "inputs": [],
      "name": "getPriceFeed",
      "outputs": [
        {
          "internalType": "contract AggregatorV3Interface",
          "name": "",
          "type": "address"
        }
      ],
      "stateMutability": "view",
      "type": "function"
    },
    {
      "inputs": [],
      "name": "minimumUsd",
      "outputs": [
        {
          "internalType": "uint256",
          "name": "",
          "type": "uint256"
        }
      ],
      "stateMutability": "view",
      "type": "function"
    },
    {
      "inputs": [],
      "name": "priceFeed",
      "outputs": [
        {
          "internalType": "contract AggregatorV3Interface",
          "name": "",
          "type": "address"
        }
      ],
      "stateMutability": "view",
      "type": "function"
    },
    {
      "inputs": [],
      "name": "withdraw",
      "outputs": [],
      "stateMutability": "payable",
      "type": "function"
    }
  ],
  "bytecode": "0x60806040526801158e460913d0000060035534801561001d57600080fd5b5060405162001032380380620010328339818101604052810190610041919061012c565b33600260006101000a81548173ffffffffffffffffffffffffffffffffffffffff021916908373ffffffffffffffffffffffffffffffffffffffff16021790555080600460006101000a81548173ffffffffffffffffffffffffffffffffffffffff021916908373ffffffffffffffffffffffffffffffffffffffff16021790555050610159565b600080fd5b600073ffffffffffffffffffffffffffffffffffffffff82169050919050565b60006100f9826100ce565b9050919050565b610109816100ee565b811461011457600080fd5b50565b60008151905061012681610100565b92915050565b600060208284031215610142576101416100c9565b5b600061015084828501610117565b91505092915050565b610ec980620001696000396000f3fe6080604052600436106100705760003560e01c8063741bef1a1161004e578063741bef1a146100e75780639e87a5cd14610112578063b60d42881461013d578063dc0d3dff1461014757610070565b8063098de820146100755780633ccfd60b146100a05780633e47d6f3146100aa575b600080fd5b34801561008157600080fd5b5061008a610184565b604051610097919061074b565b60405180910390f35b6100a861018a565b005b3480156100b657600080fd5b506100d160048036038101906100cc91906107c9565b6103d5565b6040516100de919061074b565b60405180910390f35b3480156100f357600080fd5b506100fc6103ed565b6040516101099190610855565b60405180910390f35b34801561011e57600080fd5b50610127610413565b6040516101349190610855565b60405180910390f35b61014561043d565b005b34801561015357600080fd5b5061016e6004803603810190610169919061089c565b610570565b60405161017b91906108d8565b60405180910390f35b60035481565b600260009054906101000a900473ffffffffffffffffffffffffffffffffffffffff1673ffffffffffffffffffffffffffffffffffffffff163373ffffffffffffffffffffffffffffffffffffffff161461021a576040517f08c379a000000000000000000000000000000000000000000000000000000000815260040161021190610950565b60405180910390fd5b60005b6001805490508110156102c5576000600182815481106102405761023f610970565b5b9060005260206000200160009054906101000a900473ffffffffffffffffffffffffffffffffffffffff16905060008060008373ffffffffffffffffffffffffffffffffffffffff1673ffffffffffffffffffffffffffffffffffffffff168152602001908152602001600020819055505080806102bd906109ce565b91505061021d565b50600067ffffffffffffffff8111156102e1576102e0610a17565b5b60405190808252806020026020018201604052801561030f5781602001602082028036833780820191505090505b506001908051906020019061032592919061068b565b5060003373ffffffffffffffffffffffffffffffffffffffff164760405161034c90610a77565b60006040518083038185875af1925050503d8060008114610389576040519150601f19603f3d011682016040523d82523d6000602084013e61038e565b606091505b50509050806103d2576040517f08c379a00000000000000000000000000000000000000000000000000000000081526004016103c990610ad8565b60405180910390fd5b50565b60006020528060005260406000206000915090505481565b600460009054906101000a900473ffffffffffffffffffffffffffffffffffffffff1681565b6000600460009054906101000a900473ffffffffffffffffffffffffffffffffffffffff16905090565b600354610475600460009054906101000a900473ffffffffffffffffffffffffffffffffffffffff16346105af90919063ffffffff16565b10156104b6576040517f08c379a00000000000000000000000000000000000000000000000000000000081526004016104ad90610b44565b60405180910390fd5b346000803373ffffffffffffffffffffffffffffffffffffffff1673ffffffffffffffffffffffffffffffffffffffff16815260200190815260200160002060008282546105049190610b64565b925050819055506001339080600181540180825580915050600190039060005260206000200160009091909190916101000a81548173ffffffffffffffffffffffffffffffffffffffff021916908373ffffffffffffffffffffffffffffffffffffffff160217905550565b6001818154811061058057600080fd5b906000526020600020016000915054906101000a900473ffffffffffffffffffffffffffffffffffffffff1681565b6000806105bb836105eb565b90506000670de0b6b3a764000085836105d49190610bba565b6105de9190610c43565b9050809250505092915050565b6000808273ffffffffffffffffffffffffffffffffffffffff1663feaf968c6040518163ffffffff1660e01b815260040160a06040518083038186803b15801561063457600080fd5b505afa158015610648573d6000803e3d6000fd5b505050506040513d601f19601f8201168201806040525081019061066c9190610d01565b5050509150506402540be400816106839190610d7c565b915050919050565b828054828255906000526020600020908101928215610704579160200282015b828111156107035782518260006101000a81548173ffffffffffffffffffffffffffffffffffffffff021916908373ffffffffffffffffffffffffffffffffffffffff160217905550916020019190600101906106ab565b5b5090506107119190610715565b5090565b5b8082111561072e576000816000905550600101610716565b5090565b6000819050919050565b61074581610732565b82525050565b6000602082019050610760600083018461073c565b92915050565b600080fd5b600073ffffffffffffffffffffffffffffffffffffffff82169050919050565b60006107968261076b565b9050919050565b6107a68161078b565b81146107b157600080fd5b50565b6000813590506107c38161079d565b92915050565b6000602082840312156107df576107de610766565b5b60006107ed848285016107b4565b91505092915050565b6000819050919050565b600061081b6108166108118461076b565b6107f6565b61076b565b9050919050565b600061082d82610800565b9050919050565b600061083f82610822565b9050919050565b61084f81610834565b82525050565b600060208201905061086a6000830184610846565b92915050565b61087981610732565b811461088457600080fd5b50565b60008135905061089681610870565b92915050565b6000602082840312156108b2576108b1610766565b5b60006108c084828501610887565b91505092915050565b6108d28161078b565b82525050565b60006020820190506108ed60008301846108c9565b92915050565b600082825260208201905092915050565b7f596f7520617265206e6f74206f776e6572000000000000000000000000000000600082015250565b600061093a6011836108f3565b915061094582610904565b602082019050919050565b600060208201905081810360008301526109698161092d565b9050919050565b7f4e487b7100000000000000000000000000000000000000000000000000000000600052603260045260246000fd5b7f4e487b7100000000000000000000000000000000000000000000000000000000600052601160045260246000fd5b60006109d982610732565b91507fffffffffffffffffffffffffffffffffffffffffffffffffffffffffffffffff821415610a0c57610a0b61099f565b5b600182019050919050565b7f4e487b7100000000000000000000000000000000000000000000000000000000600052604160045260246000fd5b600081905092915050565b50565b6000610a61600083610a46565b9150610a6c82610a51565b600082019050919050565b6000610a8282610a54565b9150819050919050565b7f63616c6c206661696c6564000000000000000000000000000000000000000000600082015250565b6000610ac2600b836108f3565b9150610acd82610a8c565b602082019050919050565b60006020820190508181036000830152610af181610ab5565b9050919050565b7f53656e64206d6f72652065746865720000000000000000000000000000000000600082015250565b6000610b2e600f836108f3565b9150610b3982610af8565b602082019050919050565b60006020820190508181036000830152610b5d81610b21565b9050919050565b6000610b6f82610732565b9150610b7a83610732565b9250827fffffffffffffffffffffffffffffffffffffffffffffffffffffffffffffffff03821115610baf57610bae61099f565b5b828201905092915050565b6000610bc582610732565b9150610bd083610732565b9250817fffffffffffffffffffffffffffffffffffffffffffffffffffffffffffffffff0483118215151615610c0957610c0861099f565b5b828202905092915050565b7f4e487b7100000000000000000000000000000000000000000000000000000000600052601260045260246000fd5b6000610c4e82610732565b9150610c5983610732565b925082610c6957610c68610c14565b5b828204905092915050565b600069ffffffffffffffffffff82169050919050565b610c9381610c74565b8114610c9e57600080fd5b50565b600081519050610cb081610c8a565b92915050565b6000819050919050565b610cc981610cb6565b8114610cd457600080fd5b50565b600081519050610ce681610cc0565b92915050565b600081519050610cfb81610870565b92915050565b600080600080600060a08688031215610d1d57610d1c610766565b5b6000610d2b88828901610ca1565b9550506020610d3c88828901610cd7565b9450506040610d4d88828901610cec565b9350506060610d5e88828901610cec565b9250506080610d6f88828901610ca1565b9150509295509295909350565b6000610d8782610cb6565b9150610d9283610cb6565b9250827f7fffffffffffffffffffffffffffffffffffffffffffffffffffffffffffffff0482116000841360008413161615610dd157610dd061099f565b5b817f80000000000000000000000000000000000000000000000000000000000000000583126000841260008413161615610e0e57610e0d61099f565b5b827f80000000000000000000000000000000000000000000000000000000000000000582126000841360008412161615610e4b57610e4a61099f565b5b827f7fffffffffffffffffffffffffffffffffffffffffffffffffffffffffffffff0582126000841260008412161615610e8857610e8761099f565b5b82820290509291505056fea26469706673582212207d80fef2edeab580b5f6e92804baa40c75729ddd48a16497d59011d50557d67f64736f6c63430008090033",
  "linkReferences": {},
  "deployedLinkReferences": {}
}